:1000000009C016C015C014C013C012C012C010C061
:100010000FC00EC011241FBECFE9CDBF20E0A0E667
:10002000B0E001C01D92A637B207E1F77CD1A9C1AB
:10003000E7CF1F920F920FB60F9211242F938F9339
:100040009F9380916600909167000196909367005E
:10005000809366008091660090916700883E93408F
:100060006CF080916D0090916E00019690936E00FF
:1000700080936D0010926700109266008091660078
:1000800090916700843F914031F08091660090919B
:100090006700892B31F49091610081E0892780937A
:1000A00061009F918F912F910F900FBE0F901F9025
:1000B00018951092700010926F0028E085B190E0C2
:1000C000880F991F880F991F40916F005091700001
:1000D000840F951F9093700080936F008BED95E0D7
:1000E0000197F1F700C00000215041F780916F00A7
:1000F0009091700023E0959587952A95E1F790936C
:10010000700080936F00853823E0920714F082E03E
:100110000FC09C0121593140273C310510F481E08A
:1001200007C0843691051CF410926800089583E09E
:1001300080936800089580916100882311F0C19A2E
:100140000895C1980895C198089580916D00909187
:100150006E00863F9F4314F0B09B01C0A8950895A0
:10016000B49B02C0B3990AC096B386B392959F70B0
:10017000869586958695892B80FD03C01092650033
:1001800011C08091740080FD0DC081E080936500F6
:100190008093740080916D0090916E009093720036
:1001A0008093710080916D0090916E00209171009C
:1001B00030917200821B930B039744F4809174007A
:1001C000882321F081E08093730002C010927300B5
:1001D00080916D0090916E00821B930B03974CF001
:1001E00080917400882329F08091650080FF10922F
:1001F00074000895B09B0FC08091750080FD0BC006
:1002000081E08093750080916D0090916E009093D5
:10021000640080936300B09905C0809175008111DE
:1002200010927500B49B0FC08091620080FD0BC0DE
:1002300081E08093620080916D0090916E009093B8
:100240006B0080936A00B49905C0809162008111AF
:1002500010926200B39B06C0B49B04C081E08093FF
:100260006C0020C0B09B0DC080916D0090916E001D
:100270002091630030916400821B930B893592407A
:100280006CF7B49B0DC080916D0090916E00209131
:100290006A0030916B00821B930B89379105F4F64D
:1002A00010926C008091680081FD08C080FD08C03C
:1002B00090E0809590959595879580FD10926C00C3
:1002C0000895B39B02C0B49902C0B39B02C0C0980A
:1002D0000895B499C09A089583E087BB84E084BBF5
:1002E00018BA91E297B992EE96B913B892E09FBD11
:1002F00093BF89BF8DE786BF10926700109266009A
:1003000010926E0010926D001092750099E288E1D3
:100310000FB6F894A89581BD0FBE91BD789481B7B2
:100320008A5081BF0895D8DF87EB9BE00197F1F7F2
:1003300000C00000BEDE80916800813039F020F0FE
:10034000823029F4C09A03C0C09801C0BADF8091FE
:100350006800813011F404DF02C0109273004ADF9C
:1003600080916C00811108C080917300811104C0DC
:1003700080916800833011F4DEDE01C0E4DEE5DE4A
:06038000D9CFF894FFCF75
:00000001FF
