:1000000009C016C015C014C013C012C034C010C03F
:100010000FC00EC011241FBECFE9CDBF20E0A0E667
:10002000B0E001C01D92A936B207E1F764D0C9C0A3
:10003000E7CF83E087BB84E084BB18BA91E297B92D
:1000400092EE96B913B892E09FBD93BF89BF8DE73A
:1000500086BF1092640010926300109266001092A6
:10006000650099E288E10FB6F894A89581BD0FBEAE
:1000700091BD789408951F920F920FB60F9211249C
:100080002F938F939F9380916300909164000196CA
:10009000909364008093630080916300909164006A
:1000A000883E93406CF080916500909166000196C7
:1000B0009093660080936500109264001092630034
:1000C0008091630090916400843F914031F0809171
:1000D000630090916400892B31F49091610081E07C
:1000E0008927809361009F918F912F910F900FBE70
:1000F0000F901F9018959DDF83EC99E00197F1F721
:1001000000C000001092600031E010926800109270
:10011000670028E085B190E0880F991F880F991F2C
:100120004091670050916800840F951F909368007C
:100130008093670081EE94E00197F1F700C0000022
:10014000215041F7809167009091680023E09595D8
:1001500087952A95E1F7909368008093670085382A
:1001600023E092078CF4AC0141595140473C5105C2
:1001700068F4B39B05C0B49B03C0309360000CC00F
:10018000B39907C0B49B06C0C09A04C084369105D9
:10019000A4F7C0981092600080916000882331F02D
:1001A00080916100882311F0C19A01C0C1988091AB
:1001B0006500909166000F9714F0C09BA6CFA8959C
:0601C000A4CFF894FFCF6C
:00000001FF
